{
  "contractName": "ScoreStore",
  "abi": [
    {
      "constant": false,
      "inputs": [
        {
          "name": "name",
          "type": "string"
        }
      ],
      "name": "GetScore",
      "outputs": [
        {
          "name": "",
          "type": "int256"
        }
      ],
      "payable": false,
      "stateMutability": "nonpayable",
      "type": "function"
    },
    {
      "constant": false,
      "inputs": [
        {
          "name": "name",
          "type": "string"
        },
        {
          "name": "startingScore",
          "type": "int256"
        }
      ],
      "name": "AddPersonScore",
      "outputs": [],
      "payable": false,
      "stateMutability": "nonpayable",
      "type": "function"
    }
  ],
  "bytecode": "0x6060604052341561000f57600080fd5b6102b48061001e6000396000f30060606040526004361061004c576000357c0100000000000000000000000000000000000000000000000000000000900463ffffffff168063308d196414610051578063fdb402b8146100c2575b600080fd5b341561005c57600080fd5b6100ac600480803590602001908201803590602001908080601f01602080910402602001604051908101604052809392919081815260200183838082843782019150505050505091905050610128565b6040518082815260200191505060405180910390f35b34156100cd57600080fd5b610126600480803590602001908201803590602001908080601f0160208091040260200160405190810160405280939291908181526020018383808284378201915050505050509190803590602001909190505061019c565b005b600080826040518082805190602001908083835b602083101515610161578051825260208201915060208101905060208303925061013c565b6001836020036101000a0380198251168184511680821785525050505050509050019150509081526020016040518091039020549050919050565b600080836040518082805190602001908083835b6020831015156101d557805182526020820191506020810190506020830392506101b0565b6001836020036101000a038019825116818451168082178552505050505050905001915050908152602001604051809103902054131561021457600080fd5b806000836040518082805190602001908083835b60208310151561024d5780518252602082019150602081019050602083039250610228565b6001836020036101000a03801982511681845116808217855250505050505090500191505090815260200160405180910390208190555050505600a165627a7a7230582087e9114480955f56438beb8b41f5f3a2333c475bc1b243540b3fde1bd9a8b7110029",
  "source": "pragma solidity ^0.4.17;\n\n/**\n * The ScoreStore contract stores a score and is used to demonstrate storage on the blockchain\n */\ncontract ScoreStore {\n\tmapping(string => int) PersonScores;\n\tfunction AddPersonScore(string name, int startingScore) {\n\t\tif(PersonScores[name] > 0) {\n\t\t\tthrow;\n\t\t}\n\t\telse {\n\t\t\tPersonScores[name] = startingScore;\n\t\t}\n\t}\n\n\tfunction GetScore (string name) returns (int) {\n\t\treturn PersonScores[name];\n\t}\n}\n\n",
  "sourcePath": "/Users/robert/Git/blockchain-solidity/score-store/contracts/ScoreStore.sol",
  "compiler": {
    "name": "solc",
    "version": "0.4.18+commit.9cf6e910.Emscripten.clang"
  },
  "schemaVersion": "1.0.1",
  "updatedAt": "2017-11-19T06:19:14.027Z"
}