{
  "contractName": "Game",
  "abi": [
    {
      "constant": false,
      "inputs": [
        {
          "name": "name",
          "type": "string"
        }
      ],
      "name": "ShowScore",
      "outputs": [
        {
          "name": "",
          "type": "int256"
        }
      ],
      "payable": false,
      "stateMutability": "nonpayable",
      "type": "function"
    }
  ],
  "bytecode": "0x6060604052341561000f57600080fd5b6101fc8061001e6000396000f300606060405260043610610041576000357c0100000000000000000000000000000000000000000000000000000000900463ffffffff168063f06c5f0f14610046575b600080fd5b341561005157600080fd5b6100a1600480803590602001908201803590602001908080601f016020809104026020016040519081016040528093929190818152602001838380828437820191505050505050919050506100b7565b6040518082815260200191505060405180910390f35b60008073ba99576a67906c7bfe437fb2963c490f34fd31e590508073ffffffffffffffffffffffffffffffffffffffff1663308d1964846000604051602001526040518263ffffffff167c01000000000000000000000000000000000000000000000000000000000281526004018080602001828103825283818151815260200191508051906020019080838360005b83811015610162578082015181840152602081019050610147565b50505050905090810190601f16801561018f5780820380516001836020036101000a031916815260200191505b5092505050602060405180830381600087803b15156101ad57600080fd5b6102c65a03f115156101be57600080fd5b505050604051805190509150509190505600a165627a7a72305820c13ff906a6e5cd5c89fde1434925a24dadc8eb1938e19bacd207d7d732e42e380029",
  "source": "pragma solidity ^0.4.17;\n\n/**\n * The IScoreStore contract create a game\n */\ncontract IScoreStore {\n\tfunction GetScore(string name) returns (int);\n}\n\n/**\n * The Game contract is a game\n */\ncontract Game {\n\tfunction ShowScore(string name) returns (int) {\n\t\tIScoreStore scoreStore = IScoreStore(0xba99576a67906c7bfe437fb2963c490f34fd31e5);\n\t\treturn scoreStore.GetScore(name);\n\t}\n\t\n}\n",
  "sourcePath": "/Users/robert/Git/blockchain-solidity/game/contracts/game.sol",
  "compiler": {
    "name": "solc",
    "version": "0.4.18+commit.9cf6e910.Emscripten.clang"
  },
  "schemaVersion": "1.0.1",
  "updatedAt": "2017-11-19T06:42:15.910Z"
}